:100000000C945D000C9485000C9485000C94850084
:100010000C9485000C9485000C9485000C9485004C
:100020000C9485000C9485000C9485000C9485003C
:100030000C9485000C9485000C9485000C9485002C
:100040000C948A010C9485000C94C9030C940C0444
:100050000C9485000C9485000C9485000C9485000C
:100060000C9485000C94850000000007000201003C
:100070000003040600000000000000000102040864
:100080001020408001020408102001020408102002
:10009000040404040404040402020202020203032E
:1000A0000303030300000000250028002B000000CC
:1000B0000000240027002A00CB0411241FBECFEF2C
:1000C000D8E0DEBFCDBF11E0A0E0B1E0E6E6FAE0A7
:1000D00002C005900D92A031B107D9F721E0A0E14F
:1000E000B1E001C01D92A53CB207E1F710E0CDE5FB
:1000F000D0E004C02197FE010E942B05CC35D1072A
:10010000C9F70E9422030C9406050C9400008BE1B1
:1001100091E00E942F03181619069CF50E941F01FA
:100120008130910589F018F0059791F01EC08091FB
:100130001101811106C081E08093110180E090E0FF
:100140001EC081E090E01BC081E08093110115C0CA
:100150000E94530180931001882311F061E001C0D7
:1001600060E08DE00E94CB0208C082E090E00E9437
:10017000600184E991E00C94750183E090E00C94B7
:100180006001089540E052EC61E070E08BE191E0A5
:100190000E94470461E08DE00E948F0260E08DE0E4
:1001A0000E94CB0261E083E00E948F0261E084E064
:1001B0000E948F0261E08DE00E94CB0268EE73E046
:1001C00080E090E00E94050260E08DE00E94CB029A
:1001D00068EE73E080E090E00E94050261E08DE04F
:1001E0000E94CB0268EE73E080E090E00E9405027E
:1001F00060E08DE00E94CB0268EE73E080E090E06A
:100200000E94050261E08DE00E94CB028091110105
:1002100081110FC080E090E00E94600148EE53E041
:1002200060E070E081E090E00E9423010E9487007E
:10023000EDCF60E08DE00C94CB020C9487008BE155
:1002400091E00C945B038F929F92AF92BF92CF92FA
:10025000DF92EF92FF92CF93DF93EC016A017B0173
:100260000E94D4014B015C018BE191E00E942F03BD
:100270008C179D076CF40E94D401DC01CB01881916
:100280009909AA09BB098C159D05AE05BF0560F348
:10029000DF91CF91FF90EF90DF90CF90BF90AF9024
:1002A0009F908F90089544E650E060E070E081E018
:1002B00090E00E9423018BE191E00E945B0308958E
:1002C000CF93DF9300D0CDB7DEB79A83898341E027
:1002D00050E0BE016F5F7F4F8BE191E00E94FA0218
:1002E0000F900F90DF91CF910895CF93DF9300D0BF
:1002F000CDB7DEB789839A8342E050E0BE016F5FDD
:100300007F4F8BE191E00E94FA020F900F90DF91F6
:10031000CF9108951F920F920FB60F9211242F9331
:100320003F938F939F93AF93BF93809113019091CD
:100330001401A0911501B09116013091120123E032
:10034000230F2D3720F40196A11DB11D05C026E80D
:10035000230F0296A11DB11D20931201809313015A
:1003600090931401A0931501B09316018091170189
:1003700090911801A0911901B0911A010196A11D47
:10038000B11D8093170190931801A0931901B093A8
:100390001A01BF91AF919F918F913F912F910F9033
:1003A0000FBE0F901F9018952FB7F894609113010E
:1003B0007091140180911501909116012FBF08953D
:1003C0003FB7F8948091170190911801A0911901FD
:1003D000B0911A0126B5A89B05C02F3F19F00196D0
:1003E000A11DB11D3FBFBA2FA92F982F8827820FBB
:1003F000911DA11DB11DBC01CD0142E0660F771F0B
:10040000881F991F4A95D1F70895CF92DF92EF92F6
:10041000FF92CF93DF936B017C010E94E001EB011F
:10042000C114D104E104F10479F00E94E0016C1BD5
:100430007D0B683E7340A0F381E0C81AD108E10843
:10044000F108C851DC4FECCFDF91CF91FF90EF90D6
:10045000DF90CF900895789484B5826084BD84B590
:10046000816084BD85B5826085BD85B5816085BDAF
:10047000EEE6F0E0808181608083E1E8F0E01082C8
:10048000808182608083808181608083E0E8F0E009
:10049000808181608083E1EBF0E0808184608083F3
:1004A000E0EBF0E0808181608083EAE7F0E080812A
:1004B000846080838081826080838081816080838A
:1004C0008081806880831092C1000895833081F01C
:1004D00028F4813099F08230A1F008958630A9F097
:1004E0008730B9F08430D1F4809180008F7D03C0D3
:1004F000809180008F7780938000089584B58F77F6
:1005000002C084B58F7D84BD08958091B0008F773F
:1005100003C08091B0008F7D8093B0000895CF9389
:10052000DF9390E0FC01E458FF4F2491FC01E05779
:10053000FF4F8491882361F190E0880F991FFC019F
:10054000E255FF4FC591D491FC01EC55FF4FA591A9
:10055000B491611109C09FB7F894888120958223D6
:100560008883EC912E230BC0623061F49FB7F8941E
:100570008881322F309583238883EC912E2B2C9306
:100580009FBF06C08FB7F894E8812E2B28838FBFBA
:10059000DF91CF9108951F93CF93DF93282F30E001
:1005A000F901E859FF4F8491F901E458FF4FD491C4
:1005B000F901E057FF4FC491CC23C1F0162F8111F0
:1005C0000E946602EC2FF0E0EE0FFF1FEC55FF4F8C
:1005D000A591B4919FB7F894111104C08C91D09556
:1005E000D82302C0EC91DE2BDC939FBFDF91CF912B
:1005F0001F910895CF92DF92EF92FF920F931F9376
:10060000CF93DF936C01EB017B01E40EF51E00E05C
:1006100010E0CE15DF0561F06991D601ED91FC91F6
:100620000190F081E02DC6010995080F191FF1CF47
:10063000C801DF91CF911F910F91FF90EF90DF9054
:10064000CF9008950E942B020E94C200C3E0D4E024
:100650000E941D012097E1F30E940304F9CFFC01E1
:1006600024853585F901E05CFF4F808191813296C8
:1006700020813181821B930B8F7399270895DC01B0
:100680001C96ED91FC911D97DF01A05CBF4F2D9151
:100690003C91119712968D919C91119728173907CB
:1006A00039F08D919C91E80FF91F808190E00895B9
:1006B0008FEF9FEF0895FC01A485B585FD01E05CF7
:1006C000FF4F20813181329680819181281739072F
:1006D00079F080819181A80FB91F8C91208131819F
:1006E0002F5F3F4F2F7333273183208390E008958E
:1006F0008FEF9FEF0895FC0181A1882329F0A48941
:10070000B5898C9186FFFBCF11A208950F931F939B
:10071000CF93DF93FC01A685B7858D01005C1F4F49
:10072000E8018881998101968F739927AD014E5B0D
:100730005F4FEA012881398128173907D1F3E80191
:1007400028813981A20FB31F6C93A685B785A05C61
:10075000BF4F11969C938E93A689B7892C9181E007
:1007600090E0078C02C0880F991F0A94E2F7822B51
:100770008C9381E081A30488F589E02D80818064D9
:10078000808381E090E0DF91CF911F910F910895D8
:1007900008951F920F920FB60F9211242F934F932B
:1007A0005F938F939F93EF93FF938091C00082FD9F
:1007B0001CC02091C6008091C1019091C20140915E
:1007C000C3015091C40101968F73992748175907A7
:1007D00071F0E091C101F091C201EF57FE4F20830B
:1007E0009093C2018093C10102C08091C600FF9125
:1007F000EF919F918F915F914F912F910F900FBE2D
:100800000F901F9018958BE191E00E942F03892B88
:1008100011F00C94C80308951F920F920FB60F9217
:1008200011242F933F938F939F93EF93FF932091E6
:100830007D0130917E0180917F0190918001281788
:10084000390731F48091C1008F7D8093C10014C0BD
:10085000E0917F01F0918001E35CFE4F2081809167
:100860007F019091800101968F7399279093800169
:1008700080937F012093C600FF91EF919F918F910C
:100880003F912F910F900FBE0F901F901895CF9210
:10089000DF92EF92FF92CF93DF93EC016A017B012D
:1008A0004115514E6105710509F1EC89FD8981E021
:1008B00090E008A002C0880F991F0A94E2F7808395
:1008C00060E079E08DE390E0A70196010E940905C0
:1008D000DA01C9010197A109B109B695A7959795C4
:1008E00087959C01211580E13807A8F0EC89FD89E6
:1008F000108260E874E88EE190E0A70196010E9402
:100900000905DA01C9010197A109B109B695A795B1
:10091000979587959C01E889F9893083EA89FB8955
:10092000208319A2EE89FF89408181E090E09C013B
:100930000C8C02C0220F331F0A94E2F7242B208371
:10094000EE89FF8940819C010D8C02C0220F331F6C
:100950000A94E2F7242B2083EE89FF8940819C01D1
:100960000E8C02C0220F331F0A94E2F7242B20833F
:10097000EE89FF8920810F8C02C0880F991F0A948D
:10098000E2F7809582238083DF91CF91FF90EF90F3
:10099000DF90CF900895EBE1F1E01382128288EEB0
:1009A00093E0A0E0B0E084839583A683B78384E0DE
:1009B00091E09183808381E891E0958784878DE33E
:1009C00091E09787868785EC90E0918B808B84EC13
:1009D00090E0938B828B80EC90E0958B848B81EC04
:1009E00090E0978B868B82EC90E0918F808F86ECE5
:1009F00090E0938F828F84E0848F83E0858F87E0FF
:100A0000868F85E0878F81E080A30895F8940C9409
:100A10003105A1E21A2EAA1BBB1BFD010DC0AA1FA6
:100A2000BB1FEE1FFF1FA217B307E407F50720F057
:100A3000A21BB30BE40BF50B661F771F881F991FD2
:100A40001A9469F760957095809590959B01AC011B
:100A5000BD01CF010895EE0FFF1F0590F491E02D29
:060A60000994F894FFCF99
:100A6600000000008603FA022F035B033F037B03AB
:00000001FF
